{
  "transactions": [
    {
      "hash": "0x67e2166f3ba99099401865f3e44736a46c115dac3f1920e3a22f618df18a5cc7",
      "transactionType": "CALL",
      "contractName": null,
      "contractAddress": "0xFf34e285F8ED393E366046153e3C16484A4dD674",
      "function": "initialize((address,address,uint24,int24,address),uint160,bytes)",
      "arguments": [
        "(0x14fDF78D02Ba2B136cac229caB4E78A624Fa09DC, 0x693AA12886c4C2De10D0900F507603F041a9ddA9, 3000, 60, 0x2C0Cc9960fEDDF68DC51CABD8f1B9Bd0622B0f80)",
        "4339505179874779672736325173248",
        "0x"
      ],
      "transaction": {
        "type": "0x02",
        "from": "0xacedf8742edc7d923e1e6462852cce136ee9fb56",
        "to": "0xff34e285f8ed393e366046153e3c16484a4dd674",
        "gas": "0x124d3",
        "value": "0x0",
        "data": "0x695c5bf500000000000000000000000014fdf78d02ba2b136cac229cab4e78a624fa09dc000000000000000000000000693aa12886c4c2de10d0900f507603f041a9dda90000000000000000000000000000000000000000000000000000000000000bb8000000000000000000000000000000000000000000000000000000000000003c0000000000000000000000002c0cc9960feddf68dc51cabd8f1b9bd0622b0f800000000000000000000000000000000000000036c5b28d889de600000000000000000000000000000000000000000000000000000000000000000000000000e00000000000000000000000000000000000000000000000000000000000000000",
        "nonce": "0x4c3",
        "accessList": []
      },
      "additionalContracts": [],
      "isFixedGasLimit": false
    }
  ],
  "receipts": [
    {
      "transactionHash": "0x67e2166f3ba99099401865f3e44736a46c115dac3f1920e3a22f618df18a5cc7",
      "transactionIndex": "0x0",
      "blockHash": "0x870725760ccd9687b849188b58508720cb755592a32905f8f8a094695be7b538",
      "blockNumber": "0x6034a9",
      "from": "0xaCEdF8742eDC7d923e1e6462852cCE136ee9Fb56",
      "to": "0xFf34e285F8ED393E366046153e3C16484A4dD674",
      "cumulativeGasUsed": "0xd400",
      "gasUsed": "0xd400",
      "contractAddress": null,
      "logs": [
        {
          "address": "0xFf34e285F8ED393E366046153e3C16484A4dD674",
          "topics": [
            "0x3fd553db44f207b1f41348cfc4d251860814af9eadc470e8e7895e4d120511f4",
            "0x00000000000000000000000014fdf78d02ba2b136cac229cab4e78a624fa09dc",
            "0x000000000000000000000000693aa12886c4c2de10d0900f507603f041a9dda9"
          ],
          "data": "0x1499bca1ebfabb51b253be4bccd02dc524722e1f5825e9a6de9224b725878b1e0000000000000000000000000000000000000000000000000000000000000bb8000000000000000000000000000000000000000000000000000000000000003c0000000000000000000000002c0cc9960feddf68dc51cabd8f1b9bd0622b0f80",
          "blockHash": "0x870725760ccd9687b849188b58508720cb755592a32905f8f8a094695be7b538",
          "blockNumber": "0x6034a9",
          "transactionHash": "0x67e2166f3ba99099401865f3e44736a46c115dac3f1920e3a22f618df18a5cc7",
          "transactionIndex": "0x0",
          "logIndex": "0x0",
          "removed": false
        }
      ],
      "status": "0x1",
      "logsBloom": "0x00000000000000000000000000000000000000000000000000000000002080000000000000000000000000000000000000000000000000000000000000000000000000000000000000000000000020000000000000000000000000000000000000000000800000000000000000000000000000000000000000000000000000000000000000000080000000200000000000000000000000000000000000000000000000000000000000000000000000000000000000000000000000800000000000000000000000000000008000000000000000000000000000000000000000040000000000000000000800000000000000000000000002000000000008000000",
      "type": "0x2",
      "effectiveGasPrice": "0xb7ad885c"
    }
  ],
  "libraries": [],
  "pending": [],
  "returns": {},
  "timestamp": 1720904178,
  "chain": 11155111,
  "commit": "93afc44"
}